{"abi":[{"type":"constructor","inputs":[{"name":"_treasury","type":"address","internalType":"address"}],"stateMutability":"nonpayable"},{"type":"function","name":"FEE_DENOMINATOR","inputs":[],"outputs":[{"name":"","type":"uint256","internalType":"uint256"}],"stateMutability":"view"},{"type":"function","name":"balances","inputs":[{"name":"","type":"address","internalType":"address"},{"name":"","type":"address","internalType":"address"}],"outputs":[{"name":"","type":"uint256","internalType":"uint256"}],"stateMutability":"view"},{"type":"function","name":"depositBalance","inputs":[{"name":"token","type":"address","internalType":"address"},{"name":"amount","type":"uint256","internalType":"uint256"}],"outputs":[],"stateMutability":"nonpayable"},{"type":"function","name":"getBalance","inputs":[{"name":"user","type":"address","internalType":"address"},{"name":"token","type":"address","internalType":"address"}],"outputs":[{"name":"","type":"uint256","internalType":"uint256"}],"stateMutability":"view"},{"type":"function","name":"getModel","inputs":[{"name":"modelId","type":"string","internalType":"string"}],"outputs":[{"name":"","type":"tuple","internalType":"struct AgentPayKit.Model","components":[{"name":"owner","type":"address","internalType":"address"},{"name":"endpoint","type":"string","internalType":"string"},{"name":"price","type":"uint256","internalType":"uint256"},{"name":"token","type":"address","internalType":"address"},{"name":"active","type":"bool","internalType":"bool"},{"name":"totalCalls","type":"uint256","internalType":"uint256"},{"name":"totalRevenue","type":"uint256","internalType":"uint256"}]}],"stateMutability":"view"},{"type":"function","name":"getUserBalance","inputs":[{"name":"user","type":"address","internalType":"address"},{"name":"token","type":"address","internalType":"address"}],"outputs":[{"name":"","type":"uint256","internalType":"uint256"}],"stateMutability":"view"},{"type":"function","name":"models","inputs":[{"name":"","type":"string","internalType":"string"}],"outputs":[{"name":"owner","type":"address","internalType":"address"},{"name":"endpoint","type":"string","internalType":"string"},{"name":"price","type":"uint256","internalType":"uint256"},{"name":"token","type":"address","internalType":"address"},{"name":"active","type":"bool","internalType":"bool"},{"name":"totalCalls","type":"uint256","internalType":"uint256"},{"name":"totalRevenue","type":"uint256","internalType":"uint256"}],"stateMutability":"view"},{"type":"function","name":"owner","inputs":[],"outputs":[{"name":"","type":"address","internalType":"address"}],"stateMutability":"view"},{"type":"function","name":"payAndCall","inputs":[{"name":"payment","type":"tuple","internalType":"struct AgentPayKit.PaymentData","components":[{"name":"modelId","type":"string","internalType":"string"},{"name":"inputHash","type":"bytes32","internalType":"bytes32"},{"name":"amount","type":"uint256","internalType":"uint256"},{"name":"deadline","type":"uint256","internalType":"uint256"},{"name":"smartWalletSig","type":"bytes","internalType":"bytes"},{"name":"v","type":"uint8","internalType":"uint8"},{"name":"r","type":"bytes32","internalType":"bytes32"},{"name":"s","type":"bytes32","internalType":"bytes32"}]}],"outputs":[],"stateMutability":"nonpayable"},{"type":"function","name":"platformFee","inputs":[],"outputs":[{"name":"","type":"uint256","internalType":"uint256"}],"stateMutability":"view"},{"type":"function","name":"processedPayments","inputs":[{"name":"","type":"bytes32","internalType":"bytes32"}],"outputs":[{"name":"","type":"bool","internalType":"bool"}],"stateMutability":"view"},{"type":"function","name":"registerModel","inputs":[{"name":"modelId","type":"string","internalType":"string"},{"name":"endpoint","type":"string","internalType":"string"},{"name":"price","type":"uint256","internalType":"uint256"},{"name":"token","type":"address","internalType":"address"}],"outputs":[],"stateMutability":"nonpayable"},{"type":"function","name":"renounceOwnership","inputs":[],"outputs":[],"stateMutability":"nonpayable"},{"type":"function","name":"setPlatformFee","inputs":[{"name":"_platformFee","type":"uint256","internalType":"uint256"}],"outputs":[],"stateMutability":"nonpayable"},{"type":"function","name":"setTreasury","inputs":[{"name":"_treasury","type":"address","internalType":"address"}],"outputs":[],"stateMutability":"nonpayable"},{"type":"function","name":"transferOwnership","inputs":[{"name":"newOwner","type":"address","internalType":"address"}],"outputs":[],"stateMutability":"nonpayable"},{"type":"function","name":"treasury","inputs":[],"outputs":[{"name":"","type":"address","internalType":"address"}],"stateMutability":"view"},{"type":"function","name":"updateModel","inputs":[{"name":"modelId","type":"string","internalType":"string"},{"name":"endpoint","type":"string","internalType":"string"},{"name":"price","type":"uint256","internalType":"uint256"},{"name":"active","type":"bool","internalType":"bool"}],"outputs":[],"stateMutability":"nonpayable"},{"type":"function","name":"userBalances","inputs":[{"name":"","type":"address","internalType":"address"},{"name":"","type":"address","internalType":"address"}],"outputs":[{"name":"","type":"uint256","internalType":"uint256"}],"stateMutability":"view"},{"type":"function","name":"withdraw","inputs":[{"name":"token","type":"address","internalType":"address"}],"outputs":[],"stateMutability":"nonpayable"},{"type":"function","name":"withdrawBalance","inputs":[{"name":"token","type":"address","internalType":"address"},{"name":"amount","type":"uint256","internalType":"uint256"}],"outputs":[],"stateMutability":"nonpayable"},{"type":"event","name":"BalanceDeposited","inputs":[{"name":"user","type":"address","indexed":true,"internalType":"address"},{"name":"token","type":"address","indexed":true,"internalType":"address"},{"name":"amount","type":"uint256","indexed":false,"internalType":"uint256"}],"anonymous":false},{"type":"event","name":"BalanceUsed","inputs":[{"name":"user","type":"address","indexed":true,"internalType":"address"},{"name":"token","type":"address","indexed":true,"internalType":"address"},{"name":"amount","type":"uint256","indexed":false,"internalType":"uint256"},{"name":"modelId","type":"string","indexed":false,"internalType":"string"}],"anonymous":false},{"type":"event","name":"ModelRegistered","inputs":[{"name":"modelId","type":"string","indexed":true,"internalType":"string"},{"name":"owner","type":"address","indexed":true,"internalType":"address"},{"name":"price","type":"uint256","indexed":false,"internalType":"uint256"}],"anonymous":false},{"type":"event","name":"OwnershipTransferred","inputs":[{"name":"previousOwner","type":"address","indexed":true,"internalType":"address"},{"name":"newOwner","type":"address","indexed":true,"internalType":"address"}],"anonymous":false},{"type":"event","name":"PaymentProcessed","inputs":[{"name":"modelId","type":"string","indexed":true,"internalType":"string"},{"name":"payer","type":"address","indexed":true,"internalType":"address"},{"name":"amount","type":"uint256","indexed":false,"internalType":"uint256"},{"name":"inputHash","type":"bytes32","indexed":false,"internalType":"bytes32"},{"name":"timestamp","type":"uint256","indexed":false,"internalType":"uint256"}],"anonymous":false},{"type":"event","name":"PaymentWithdrawn","inputs":[{"name":"recipient","type":"address","indexed":true,"internalType":"address"},{"name":"token","type":"address","indexed":true,"internalType":"address"},{"name":"amount","type":"uint256","indexed":false,"internalType":"uint256"}],"anonymous":false},{"type":"error","name":"ECDSAInvalidSignature","inputs":[]},{"type":"error","name":"ECDSAInvalidSignatureLength","inputs":[{"name":"length","type":"uint256","internalType":"uint256"}]},{"type":"error","name":"ECDSAInvalidSignatureS","inputs":[{"name":"s","type":"bytes32","internalType":"bytes32"}]},{"type":"error","name":"OwnableInvalidOwner","inputs":[{"name":"owner","type":"address","internalType":"address"}]},{"type":"error","name":"OwnableUnauthorizedAccount","inputs":[{"name":"account","type":"address","internalType":"address"}]},{"type":"error","name":"ReentrancyGuardReentrantCall","inputs":[]}],"bytecode":{"object":"0x60806040526103e860065534801562000016575f80fd5b506040516200233e3803806200233e833981016040819052620000399162000132565b60015f5533806200006457604051631e4fbdf760e01b81525f60048201526024015b60405180910390fd5b6200006f81620000e1565b506001600160a01b038116620000bb5760405162461bcd60e51b815260206004820152601060248201526f496e76616c696420747265617375727960801b60448201526064016200005b565b600780546001600160a01b0319166001600160a01b039290921691909117905562000161565b600180546001600160a01b038381166001600160a01b0319831681179093556040519116919082907f8be0079c531659141344cd1fd0a4f28419497f9722a3daafe3b4186f6b6457e0905f90a35050565b5f6020828403121562000143575f80fd5b81516001600160a01b03811681146200015a575f80fd5b9392505050565b6121cf806200016f5f395ff3fe608060405234801561000f575f80fd5b5060043610610132575f3560e01c8063b6ab0eba116100b4578063d73792a911610079578063d73792a9146102cf578063f0d66cbf146102d8578063f0f44260146102eb578063f2fde38b146102fe578063f3f247eb14610311578063fab5740414610343575f80fd5b8063b6ab0eba14610221578063bbf8a02614610234578063c0c266bc1461025a578063c23f001f1461026d578063d4fac45d14610297575f80fd5b806365951f8b116100fa57806365951f8b146101b85780636805d6ad146101cb578063715018a6146101de5780638da5cb5b146101e6578063adb51980146101f7575f80fd5b80630cf20cc91461013657806312e8e2c31461014b57806326232a2e1461015e57806351cff8d91461017a57806361d027b31461018d575b5f80fd5b6101496101443660046119ca565b610363565b005b6101496101593660046119f2565b61050f565b61016760065481565b6040519081526020015b60405180910390f35b610149610188366004611a09565b61055d565b6007546101a0906001600160a01b031681565b6040516001600160a01b039091168152602001610171565b6101496101c6366004611a29565b6106dc565b6101676101d9366004611a61565b610a96565b610149610ac2565b6001546001600160a01b03166101a0565b610167610205366004611a61565b600460209081525f928352604080842090915290825290205481565b61014961022f366004611ad7565b610ad5565b610247610242366004611b6d565b610dda565b6040516101719796959493929190611c5b565b610149610268366004611cb7565b610ec1565b61016761027b366004611a61565b600360209081525f928352604080842090915290825290205481565b6101676102a5366004611a61565b6001600160a01b039182165f90815260036020908152604080832093909416825291909152205490565b61016761271081565b6101496102e63660046119ca565b610fe7565b6101496102f9366004611a09565b61116a565b61014961030c366004611a09565b6111dd565b61033361031f3660046119f2565b60056020525f908152604090205460ff1681565b6040519015158152602001610171565b610356610351366004611d3d565b611217565b6040516101719190611d7c565b61036b61137b565b335f9081526004602090815260408083206001600160a01b03861684529091529020548111156103d95760405162461bcd60e51b8152602060048201526014602482015273496e73756666696369656e742062616c616e636560601b60448201526064015b60405180910390fd5b335f9081526004602090815260408083206001600160a01b03861684529091528120805483929061040b908490611e02565b909155505060405163a9059cbb60e01b8152336004820152602481018290525f906001600160a01b0384169063a9059cbb906044016020604051808303815f875af115801561045c573d5f803e3d5ffd5b505050506040513d601f19601f820116820180604052508101906104809190611e15565b9050806104c15760405162461bcd60e51b815260206004820152600f60248201526e151c985b9cd9995c8819985a5b1959608a1b60448201526064016103d0565b6040518281526001600160a01b0384169033907f16d46b28f1a9377c2df78652a0a8e31568b99311665bcec24cbba72edd2e5c2c9060200160405180910390a35061050b60015f55565b5050565b6105176113a3565b6107d08111156105585760405162461bcd60e51b815260206004820152600c60248201526b08ccaca40e8dede40d0d2ced60a31b60448201526064016103d0565b600655565b61056561137b565b335f9081526003602090815260408083206001600160a01b0385168452909152902054806105c25760405162461bcd60e51b815260206004820152600a6024820152694e6f2062616c616e636560b01b60448201526064016103d0565b335f8181526003602090815260408083206001600160a01b03871680855292528083208390555163a9059cbb60e01b8152600481019390935260248301849052909163a9059cbb906044016020604051808303815f875af1158015610629573d5f803e3d5ffd5b505050506040513d601f19601f8201168201806040525081019061064d9190611e15565b90508061068e5760405162461bcd60e51b815260206004820152600f60248201526e151c985b9cd9995c8819985a5b1959608a1b60448201526064016103d0565b6040518281526001600160a01b0384169033907f16d46b28f1a9377c2df78652a0a8e31568b99311665bcec24cbba72edd2e5c2c9060200160405180910390a350506106d960015f55565b50565b6106e461137b565b5f60026106f18380611e30565b6040516106ff929190611e73565b90815260405190819003602001902080549091506001600160a01b031661075a5760405162461bcd60e51b815260206004820152600f60248201526e135bd9195b081b9bdd08199bdd5b99608a1b60448201526064016103d0565b6003810154600160a01b900460ff166107a65760405162461bcd60e51b815260206004820152600e60248201526d4d6f64656c20696e61637469766560901b60448201526064016103d0565b8060020154826040013510156107f55760405162461bcd60e51b8152602060048201526014602482015273125b9cdd59999a58da595b9d081c185e5b595b9d60621b60448201526064016103d0565b816060013542111561083b5760405162461bcd60e51b815260206004820152600f60248201526e14185e5b595b9d08195e1c1a5c9959608a1b60448201526064016103d0565b5f6108468380611e30565b8460200135338660600135604051602001610865959493929190611e82565b60408051601f1981840301815291815281516020928301205f818152600590935291205490915060ff16156108d05760405162461bcd60e51b815260206004820152601160248201527014185e5b595b9d081c1c9bd8d95cdcd959607a1b60448201526064016103d0565b5f818152600560209081526040808320805460ff191660011790553383526004825280832060038601546001600160a01b0316845290915290819020549084013581106109c157335f90815260046020908152604080832060038701546001600160a01b03168452909152808220805491870135929091610952908490611e02565b9091555061096690508360408601356113d0565b60038301546001600160a01b0316337f78c1bea688836bc97c258a7192b64cd9e751ec83b2e61a55f05acc1f268cd59760408701356109a58880611e30565b6040516109b493929190611eb3565b60405180910390a36109f0565b5f6109cf6080860186611e30565b905011156109e6576109e18385611483565b6109f0565b6109f0838561162e565b600483018054905f610a0183611ee8565b91905055508360400135836005015f828254610a1d9190611f00565b90915550339050610a2e8580611e30565b604051610a3c929190611e73565b60408051918290038220878201358352602080890135908401524283830152905190917f6160bea4eee6abc3a7f0ee2233eee9e67ad696116dd8ebeb246d00d9edabdd16919081900360600190a35050506106d960015f55565b6001600160a01b038083165f908152600460209081526040808320938516835292905220545b92915050565b610aca6113a3565b610ad35f61176d565b565b8415801590610ae5575060408511155b610b245760405162461bcd60e51b815260206004820152601060248201526f125b9d985b1a59081b5bd9195b08125160821b60448201526064016103d0565b82610b645760405162461bcd60e51b815260206004820152601060248201526f125b9d985b1a5908195b991c1bda5b9d60821b60448201526064016103d0565b5f8211610ba75760405162461bcd60e51b815260206004820152601160248201527005072696365206d757374206265203e203607c1b60448201526064016103d0565b6001600160a01b038116610bed5760405162461bcd60e51b815260206004820152600d60248201526c24b73b30b634b2103a37b5b2b760991b60448201526064016103d0565b5f6001600160a01b031660028787604051610c09929190611e73565b908152604051908190036020019020546001600160a01b031614610c5e5760405162461bcd60e51b815260206004820152600c60248201526b4d6f64656c2065786973747360a01b60448201526064016103d0565b6040518060e00160405280336001600160a01b0316815260200185858080601f0160208091040260200160405190810160405280939291908181526020018383808284375f920182905250938552505050602082018590526001600160a01b038416604080840191909152600160608401526080830182905260a09092015251600290610cee9089908990611e73565b90815260405160209181900382019020825181546001600160a01b0319166001600160a01b03909116178155908201516001820190610d2d9082611f99565b506040828101516002830155606083015160038301805460808601511515600160a01b026001600160a81b03199091166001600160a01b039093169290921791909117905560a0830151600483015560c090920151600590910155513390610d989088908890611e73565b604051908190038120848252907fe3a8e12a7927b2404fd94fa80277c480e174132c37b5c65a9eb76bf6be391f4f9060200160405180910390a3505050505050565b8051602081830181018051600282529282019190930120915280546001820180546001600160a01b039092169291610e1190611f13565b80601f0160208091040260200160405190810160405280929190818152602001828054610e3d90611f13565b8015610e885780601f10610e5f57610100808354040283529160200191610e88565b820191905f5260205f20905b815481529060010190602001808311610e6b57829003601f168201915b50505050600283015460038401546004850154600590950154939491936001600160a01b0382169350600160a01b90910460ff16919087565b5f60028787604051610ed4929190611e73565b90815260405190819003602001902080549091506001600160a01b03163314610f2b5760405162461bcd60e51b81526020600482015260096024820152682737ba1037bbb732b960b91b60448201526064016103d0565b83610f6b5760405162461bcd60e51b815260206004820152601060248201526f125b9d985b1a5908195b991c1bda5b9d60821b60448201526064016103d0565b5f8311610faa5760405162461bcd60e51b815260206004820152600d60248201526c496e76616c696420707269636560981b60448201526064016103d0565b60018101610fb9858783612055565b50600281019290925560039091018054911515600160a01b0260ff60a01b1990921691909117905550505050565b610fef61137b565b6001600160a01b0382166110355760405162461bcd60e51b815260206004820152600d60248201526c24b73b30b634b2103a37b5b2b760991b60448201526064016103d0565b5f81116110755760405162461bcd60e51b815260206004820152600e60248201526d125b9d985b1a5908185b5bdd5b9d60921b60448201526064016103d0565b6040516323b872dd60e01b8152336004820152306024820152604481018290526001600160a01b038316906323b872dd906064016020604051808303815f875af11580156110c5573d5f803e3d5ffd5b505050506040513d601f19601f820116820180604052508101906110e99190611e15565b50335f9081526004602090815260408083206001600160a01b03861684529091528120805483929061111c908490611f00565b90915550506040518181526001600160a01b0383169033907f854a1caa46a67abd91fff206c0a8a45f6fdc9f7cb7fcfb8ef5646daaa7f1574c9060200160405180910390a361050b60015f55565b6111726113a3565b6001600160a01b0381166111bb5760405162461bcd60e51b815260206004820152601060248201526f496e76616c696420747265617375727960801b60448201526064016103d0565b600780546001600160a01b0319166001600160a01b0392909216919091179055565b6111e56113a3565b6001600160a01b03811661120e57604051631e4fbdf760e01b81525f60048201526024016103d0565b6106d98161176d565b6112656040518060e001604052805f6001600160a01b03168152602001606081526020015f81526020015f6001600160a01b031681526020015f151581526020015f81526020015f81525090565b60028383604051611277929190611e73565b90815260408051918290036020908101832060e0840190925281546001600160a01b03168352600182018054918401916112b090611f13565b80601f01602080910402602001604051908101604052809291908181526020018280546112dc90611f13565b80156113275780601f106112fe57610100808354040283529160200191611327565b820191905f5260205f20905b81548152906001019060200180831161130a57829003601f168201915b50505091835250506002820154602082015260038201546001600160a01b0381166040830152600160a01b900460ff16151560608201526004820154608082015260059091015460a0909101529392505050565b60025f540361139d57604051633ee5aeb560e01b815260040160405180910390fd5b60025f55565b6001546001600160a01b03163314610ad35760405163118cdaa760e01b81523360048201526024016103d0565b5f612710600654836113e29190612110565b6113ec9190612127565b90505f6113f98284611e02565b84546001600160a01b039081165f908152600360208181526040808420928a015490941683525290812080549293508392909190611438908490611f00565b90915550506007546001600160a01b039081165f908152600360208181526040808420928901549094168352529081208054849290611478908490611f00565b909155505050505050565b5f61148e8280611e30565b8360200135846040013585606001356040516020016114b1959493929190612146565b6040516020818303038152906040528051906020012090505f611500827f19457468657265756d205369676e6564204d6573736167653a0a3332000000005f908152601c91909152603c902090565b90505f61154d826115146080870187611e30565b8080601f0160208091040260200160405190810160405280939291908181526020018383808284375f920191909152506117be92505050565b90506001600160a01b038116331461159b5760405162461bcd60e51b8152602060048201526011602482015270496e76616c6964207369676e617475726560781b60448201526064016103d0565b6003850154604080516323b872dd60e01b81523360048201523060248201529086013560448201526001600160a01b03909116906323b872dd906064016020604051808303815f875af11580156115f4573d5f803e3d5ffd5b505050506040513d601f19601f820116820180604052508101906116189190611e15565b506116278585604001356113d0565b5050505050565b60038201546001600160a01b031663d505accf33306040850135606086013561165d60c0880160a08901612165565b60405160e087811b6001600160e01b03191682526001600160a01b0396871660048301529490951660248601526044850192909252606484015260ff16608483015260c085013560a483015284013560c482015260e4015f604051808303815f87803b1580156116cb575f80fd5b505af11580156116dd573d5f803e3d5ffd5b505050506003820154604080516323b872dd60e01b81523360048201523060248201529083013560448201526001600160a01b03909116906323b872dd906064016020604051808303815f875af115801561173a573d5f803e3d5ffd5b505050506040513d601f19601f8201168201806040525081019061175e9190611e15565b5061050b8282604001356113d0565b600180546001600160a01b038381166001600160a01b0319831681179093556040519116919082907f8be0079c531659141344cd1fd0a4f28419497f9722a3daafe3b4186f6b6457e0905f90a35050565b5f805f806117cc86866117e6565b9250925092506117dc828261182f565b5090949350505050565b5f805f835160410361181d576020840151604085015160608601515f1a61180f888285856118e7565b955095509550505050611828565b505081515f91506002905b9250925092565b5f82600381111561184257611842612185565b0361184b575050565b600182600381111561185f5761185f612185565b0361187d5760405163f645eedf60e01b815260040160405180910390fd5b600282600381111561189157611891612185565b036118b25760405163fce698f760e01b8152600481018290526024016103d0565b60038260038111156118c6576118c6612185565b0361050b576040516335e2f38360e21b8152600481018290526024016103d0565b5f80807f7fffffffffffffffffffffffffffffff5d576e7357a4501ddfe92f46681b20a084111561192057505f915060039050826119a5565b604080515f808252602082018084528a905260ff891692820192909252606081018790526080810186905260019060a0016020604051602081039080840390855afa158015611971573d5f803e3d5ffd5b5050604051601f1901519150506001600160a01b03811661199c57505f9250600191508290506119a5565b92505f91508190505b9450945094915050565b80356001600160a01b03811681146119c5575f80fd5b919050565b5f80604083850312156119db575f80fd5b6119e4836119af565b946020939093013593505050565b5f60208284031215611a02575f80fd5b5035919050565b5f60208284031215611a19575f80fd5b611a22826119af565b9392505050565b5f60208284031215611a39575f80fd5b813567ffffffffffffffff811115611a4f575f80fd5b82016101008185031215611a22575f80fd5b5f8060408385031215611a72575f80fd5b611a7b836119af565b9150611a89602084016119af565b90509250929050565b5f8083601f840112611aa2575f80fd5b50813567ffffffffffffffff811115611ab9575f80fd5b602083019150836020828501011115611ad0575f80fd5b9250929050565b5f805f805f8060808789031215611aec575f80fd5b863567ffffffffffffffff80821115611b03575f80fd5b611b0f8a838b01611a92565b90985096506020890135915080821115611b27575f80fd5b50611b3489828a01611a92565b90955093505060408701359150611b4d606088016119af565b90509295509295509295565b634e487b7160e01b5f52604160045260245ffd5b5f60208284031215611b7d575f80fd5b813567ffffffffffffffff80821115611b94575f80fd5b818401915084601f830112611ba7575f80fd5b813581811115611bb957611bb9611b59565b604051601f8201601f19908116603f01168101908382118183101715611be157611be1611b59565b81604052828152876020848701011115611bf9575f80fd5b826020860160208301375f928101602001929092525095945050505050565b5f81518084525f5b81811015611c3c57602081850181015186830182015201611c20565b505f602082860101526020601f19601f83011685010191505092915050565b5f60018060a01b03808a16835260e06020840152611c7c60e084018a611c18565b6040840198909852959095166060820152921515608084015260a083019190915260c0909101525092915050565b80151581146106d9575f80fd5b5f805f805f8060808789031215611ccc575f80fd5b863567ffffffffffffffff80821115611ce3575f80fd5b611cef8a838b01611a92565b90985096506020890135915080821115611d07575f80fd5b50611d1489828a01611a92565b909550935050604087013591506060870135611d2f81611caa565b809150509295509295509295565b5f8060208385031215611d4e575f80fd5b823567ffffffffffffffff811115611d64575f80fd5b611d7085828601611a92565b90969095509350505050565b602081525f60018060a01b03808451166020840152602084015160e06040850152611dab610100850182611c18565b9050604085015160608501528160608601511660808501526080850151151560a085015260a085015160c085015260c085015160e0850152809250505092915050565b634e487b7160e01b5f52601160045260245ffd5b81810381811115610abc57610abc611dee565b5f60208284031215611e25575f80fd5b8151611a2281611caa565b5f808335601e19843603018112611e45575f80fd5b83018035915067ffffffffffffffff821115611e5f575f80fd5b602001915036819003821315611ad0575f80fd5b818382375f9101908152919050565b8486823790930191825260601b6bffffffffffffffffffffffff191660208201526034810191909152605401919050565b83815260406020820152816040820152818360608301375f818301606090810191909152601f909201601f1916010192915050565b5f60018201611ef957611ef9611dee565b5060010190565b80820180821115610abc57610abc611dee565b600181811c90821680611f2757607f821691505b602082108103611f4557634e487b7160e01b5f52602260045260245ffd5b50919050565b601f821115611f94575f81815260208120601f850160051c81016020861015611f715750805b601f850160051c820191505b81811015611f9057828155600101611f7d565b5050505b505050565b815167ffffffffffffffff811115611fb357611fb3611b59565b611fc781611fc18454611f13565b84611f4b565b602080601f831160018114611ffa575f8415611fe35750858301515b5f19600386901b1c1916600185901b178555611f90565b5f85815260208120601f198616915b8281101561202857888601518255948401946001909101908401612009565b508582101561204557878501515f19600388901b60f8161c191681555b5050505050600190811b01905550565b67ffffffffffffffff83111561206d5761206d611b59565b6120818361207b8354611f13565b83611f4b565b5f601f8411600181146120b2575f851561209b5750838201355b5f19600387901b1c1916600186901b178355611627565b5f83815260209020601f19861690835b828110156120e257868501358255602094850194600190920191016120c2565b50868210156120fe575f1960f88860031b161c19848701351681555b505060018560011b0183555050505050565b8082028115828204841417610abc57610abc611dee565b5f8261214157634e487b7160e01b5f52601260045260245ffd5b500490565b8486823790930191825260208201526040810191909152606001919050565b5f60208284031215612175575f80fd5b813560ff81168114611a22575f80fd5b634e487b7160e01b5f52602160045260245ffdfea2646970667358221220e8b5fed4ffcd93b5029128322a7a3c53dbdba39dff1cded03c54889a627e428464736f6c63430008140033","linkReferences":{}},"methodIdentifiers":{"FEE_DENOMINATOR()":"d73792a9","balances(address,address)":"c23f001f","depositBalance(address,uint256)":"f0d66cbf","getBalance(address,address)":"d4fac45d","getModel(string)":"fab57404","getUserBalance(address,address)":"6805d6ad","models(string)":"bbf8a026","owner()":"8da5cb5b","payAndCall((string,bytes32,uint256,uint256,bytes,uint8,bytes32,bytes32))":"65951f8b","platformFee()":"26232a2e","processedPayments(bytes32)":"f3f247eb","registerModel(string,string,uint256,address)":"b6ab0eba","renounceOwnership()":"715018a6","setPlatformFee(uint256)":"12e8e2c3","setTreasury(address)":"f0f44260","transferOwnership(address)":"f2fde38b","treasury()":"61d027b3","updateModel(string,string,uint256,bool)":"c0c266bc","userBalances(address,address)":"adb51980","withdraw(address)":"51cff8d9","withdrawBalance(address,uint256)":"0cf20cc9"},"id":33}