{"abi":[{"type":"constructor","inputs":[{"name":"_treasury","type":"address","internalType":"address"}],"stateMutability":"nonpayable"},{"type":"function","name":"FEE_DENOMINATOR","inputs":[],"outputs":[{"name":"","type":"uint256","internalType":"uint256"}],"stateMutability":"view"},{"type":"function","name":"balances","inputs":[{"name":"","type":"address","internalType":"address"},{"name":"","type":"address","internalType":"address"}],"outputs":[{"name":"","type":"uint256","internalType":"uint256"}],"stateMutability":"view"},{"type":"function","name":"depositBalance","inputs":[{"name":"token","type":"address","internalType":"address"},{"name":"amount","type":"uint256","internalType":"uint256"}],"outputs":[],"stateMutability":"nonpayable"},{"type":"function","name":"getBalance","inputs":[{"name":"user","type":"address","internalType":"address"},{"name":"token","type":"address","internalType":"address"}],"outputs":[{"name":"","type":"uint256","internalType":"uint256"}],"stateMutability":"view"},{"type":"function","name":"getModel","inputs":[{"name":"modelId","type":"string","internalType":"string"}],"outputs":[{"name":"","type":"tuple","internalType":"struct AgentPayKit.Model","components":[{"name":"owner","type":"address","internalType":"address"},{"name":"endpoint","type":"string","internalType":"string"},{"name":"price","type":"uint256","internalType":"uint256"},{"name":"token","type":"address","internalType":"address"},{"name":"active","type":"bool","internalType":"bool"},{"name":"totalCalls","type":"uint256","internalType":"uint256"},{"name":"totalRevenue","type":"uint256","internalType":"uint256"}]}],"stateMutability":"view"},{"type":"function","name":"getUserBalance","inputs":[{"name":"user","type":"address","internalType":"address"},{"name":"token","type":"address","internalType":"address"}],"outputs":[{"name":"","type":"uint256","internalType":"uint256"}],"stateMutability":"view"},{"type":"function","name":"models","inputs":[{"name":"","type":"string","internalType":"string"}],"outputs":[{"name":"owner","type":"address","internalType":"address"},{"name":"endpoint","type":"string","internalType":"string"},{"name":"price","type":"uint256","internalType":"uint256"},{"name":"token","type":"address","internalType":"address"},{"name":"active","type":"bool","internalType":"bool"},{"name":"totalCalls","type":"uint256","internalType":"uint256"},{"name":"totalRevenue","type":"uint256","internalType":"uint256"}],"stateMutability":"view"},{"type":"function","name":"owner","inputs":[],"outputs":[{"name":"","type":"address","internalType":"address"}],"stateMutability":"view"},{"type":"function","name":"payAndCall","inputs":[{"name":"payment","type":"tuple","internalType":"struct AgentPayKit.PaymentData","components":[{"name":"modelId","type":"string","internalType":"string"},{"name":"inputHash","type":"bytes32","internalType":"bytes32"},{"name":"amount","type":"uint256","internalType":"uint256"},{"name":"deadline","type":"uint256","internalType":"uint256"},{"name":"smartWalletSig","type":"bytes","internalType":"bytes"},{"name":"v","type":"uint8","internalType":"uint8"},{"name":"r","type":"bytes32","internalType":"bytes32"},{"name":"s","type":"bytes32","internalType":"bytes32"}]}],"outputs":[],"stateMutability":"nonpayable"},{"type":"function","name":"platformFee","inputs":[],"outputs":[{"name":"","type":"uint256","internalType":"uint256"}],"stateMutability":"view"},{"type":"function","name":"processedPayments","inputs":[{"name":"","type":"bytes32","internalType":"bytes32"}],"outputs":[{"name":"","type":"bool","internalType":"bool"}],"stateMutability":"view"},{"type":"function","name":"registerModel","inputs":[{"name":"modelId","type":"string","internalType":"string"},{"name":"endpoint","type":"string","internalType":"string"},{"name":"price","type":"uint256","internalType":"uint256"},{"name":"token","type":"address","internalType":"address"}],"outputs":[],"stateMutability":"nonpayable"},{"type":"function","name":"renounceOwnership","inputs":[],"outputs":[],"stateMutability":"nonpayable"},{"type":"function","name":"setPlatformFee","inputs":[{"name":"newFee","type":"uint256","internalType":"uint256"}],"outputs":[],"stateMutability":"nonpayable"},{"type":"function","name":"setTreasury","inputs":[{"name":"newTreasury","type":"address","internalType":"address"}],"outputs":[],"stateMutability":"nonpayable"},{"type":"function","name":"transferOwnership","inputs":[{"name":"newOwner","type":"address","internalType":"address"}],"outputs":[],"stateMutability":"nonpayable"},{"type":"function","name":"treasury","inputs":[],"outputs":[{"name":"","type":"address","internalType":"address"}],"stateMutability":"view"},{"type":"function","name":"updateModel","inputs":[{"name":"modelId","type":"string","internalType":"string"},{"name":"endpoint","type":"string","internalType":"string"},{"name":"price","type":"uint256","internalType":"uint256"},{"name":"active","type":"bool","internalType":"bool"}],"outputs":[],"stateMutability":"nonpayable"},{"type":"function","name":"userBalances","inputs":[{"name":"","type":"address","internalType":"address"},{"name":"","type":"address","internalType":"address"}],"outputs":[{"name":"","type":"uint256","internalType":"uint256"}],"stateMutability":"view"},{"type":"function","name":"withdraw","inputs":[{"name":"token","type":"address","internalType":"address"}],"outputs":[],"stateMutability":"nonpayable"},{"type":"function","name":"withdrawBalance","inputs":[{"name":"token","type":"address","internalType":"address"},{"name":"amount","type":"uint256","internalType":"uint256"}],"outputs":[],"stateMutability":"nonpayable"},{"type":"event","name":"BalanceDeposited","inputs":[{"name":"user","type":"address","indexed":true,"internalType":"address"},{"name":"token","type":"address","indexed":true,"internalType":"address"},{"name":"amount","type":"uint256","indexed":false,"internalType":"uint256"}],"anonymous":false},{"type":"event","name":"BalanceUsed","inputs":[{"name":"user","type":"address","indexed":true,"internalType":"address"},{"name":"token","type":"address","indexed":true,"internalType":"address"},{"name":"amount","type":"uint256","indexed":false,"internalType":"uint256"},{"name":"modelId","type":"string","indexed":false,"internalType":"string"}],"anonymous":false},{"type":"event","name":"ModelRegistered","inputs":[{"name":"modelId","type":"string","indexed":true,"internalType":"string"},{"name":"owner","type":"address","indexed":true,"internalType":"address"},{"name":"price","type":"uint256","indexed":false,"internalType":"uint256"}],"anonymous":false},{"type":"event","name":"OwnershipTransferred","inputs":[{"name":"previousOwner","type":"address","indexed":true,"internalType":"address"},{"name":"newOwner","type":"address","indexed":true,"internalType":"address"}],"anonymous":false},{"type":"event","name":"PaymentProcessed","inputs":[{"name":"modelId","type":"string","indexed":true,"internalType":"string"},{"name":"payer","type":"address","indexed":true,"internalType":"address"},{"name":"amount","type":"uint256","indexed":false,"internalType":"uint256"},{"name":"inputHash","type":"bytes32","indexed":false,"internalType":"bytes32"},{"name":"timestamp","type":"uint256","indexed":false,"internalType":"uint256"}],"anonymous":false},{"type":"event","name":"PaymentWithdrawn","inputs":[{"name":"recipient","type":"address","indexed":true,"internalType":"address"},{"name":"token","type":"address","indexed":true,"internalType":"address"},{"name":"amount","type":"uint256","indexed":false,"internalType":"uint256"}],"anonymous":false},{"type":"event","name":"PlatformFeeUpdated","inputs":[{"name":"oldFee","type":"uint256","indexed":false,"internalType":"uint256"},{"name":"newFee","type":"uint256","indexed":false,"internalType":"uint256"}],"anonymous":false},{"type":"event","name":"TreasuryUpdated","inputs":[{"name":"oldTreasury","type":"address","indexed":false,"internalType":"address"},{"name":"newTreasury","type":"address","indexed":false,"internalType":"address"}],"anonymous":false},{"type":"error","name":"ECDSAInvalidSignature","inputs":[]},{"type":"error","name":"ECDSAInvalidSignatureLength","inputs":[{"name":"length","type":"uint256","internalType":"uint256"}]},{"type":"error","name":"ECDSAInvalidSignatureS","inputs":[{"name":"s","type":"bytes32","internalType":"bytes32"}]},{"type":"error","name":"OwnableInvalidOwner","inputs":[{"name":"owner","type":"address","internalType":"address"}]},{"type":"error","name":"OwnableUnauthorizedAccount","inputs":[{"name":"account","type":"address","internalType":"address"}]},{"type":"error","name":"ReentrancyGuardReentrantCall","inputs":[]}],"bytecode":{"object":"0x60806040526103e860065534801562000016575f80fd5b50604051620023ed380380620023ed833981016040819052620000399162000132565b60015f5533806200006457604051631e4fbdf760e01b81525f60048201526024015b60405180910390fd5b6200006f81620000e1565b506001600160a01b038116620000bb5760405162461bcd60e51b815260206004820152601060248201526f496e76616c696420747265617375727960801b60448201526064016200005b565b600780546001600160a01b0319166001600160a01b039290921691909117905562000161565b600180546001600160a01b038381166001600160a01b0319831681179093556040519116919082907f8be0079c531659141344cd1fd0a4f28419497f9722a3daafe3b4186f6b6457e0905f90a35050565b5f6020828403121562000143575f80fd5b81516001600160a01b03811681146200015a575f80fd5b9392505050565b61227e806200016f5f395ff3fe608060405234801561000f575f80fd5b5060043610610132575f3560e01c8063b6ab0eba116100b4578063d73792a911610079578063d73792a9146102cf578063f0d66cbf146102d8578063f0f44260146102eb578063f2fde38b146102fe578063f3f247eb14610311578063fab5740414610343575f80fd5b8063b6ab0eba14610221578063bbf8a02614610234578063c0c266bc1461025a578063c23f001f1461026d578063d4fac45d14610297575f80fd5b806365951f8b116100fa57806365951f8b146101b85780636805d6ad146101cb578063715018a6146101de5780638da5cb5b146101e6578063adb51980146101f7575f80fd5b80630cf20cc91461013657806312e8e2c31461014b57806326232a2e1461015e57806351cff8d91461017a57806361d027b31461018d575b5f80fd5b610149610144366004611a58565b610363565b005b610149610159366004611a80565b6104ee565b61016760065481565b6040519081526020015b60405180910390f35b610149610188366004611a97565b61057d565b6007546101a0906001600160a01b031681565b6040516001600160a01b039091168152602001610171565b6101496101c6366004611ab7565b6106da565b6101676101d9366004611aef565b610a96565b610149610ac2565b6001546001600160a01b03166101a0565b610167610205366004611aef565b600460209081525f928352604080842090915290825290205481565b61014961022f366004611b65565b610ad5565b610247610242366004611bfb565b610dda565b6040516101719796959493929190611ce9565b610149610268366004611d45565b610ec1565b61016761027b366004611aef565b600360209081525f928352604080842090915290825290205481565b6101676102a5366004611aef565b6001600160a01b039182165f90815260036020908152604080832093909416825291909152205490565b61016761271081565b6101496102e6366004611a58565b610fe7565b6101496102f9366004611a97565b61117e565b61014961030c366004611a97565b611229565b61033361031f366004611a80565b60056020525f908152604090205460ff1681565b6040519015158152602001610171565b610356610351366004611dcb565b611263565b6040516101719190611e0a565b61036b6113c7565b335f9081526004602090815260408083206001600160a01b03861684529091529020548111156103d95760405162461bcd60e51b8152602060048201526014602482015273496e73756666696369656e742062616c616e636560601b60448201526064015b60405180910390fd5b335f9081526004602090815260408083206001600160a01b03861684529091528120805483929061040b908490611e90565b909155505060405163a9059cbb60e01b8152336004820152602481018290525f906001600160a01b0384169063a9059cbb906044016020604051808303815f875af115801561045c573d5f803e3d5ffd5b505050506040513d601f19601f820116820180604052508101906104809190611ea3565b90508061049f5760405162461bcd60e51b81526004016103d090611ebe565b6040518281526001600160a01b0384169033907f16d46b28f1a9377c2df78652a0a8e31568b99311665bcec24cbba72edd2e5c2c906020015b60405180910390a3506104ea60015f55565b5050565b6104f66113ef565b6107d08111156105375760405162461bcd60e51b815260206004820152600c60248201526b08ccaca40e8dede40d0d2ced60a31b60448201526064016103d0565b600680549082905560408051828152602081018490527fd347e206f25a89b917fc9482f1a2d294d749baa4dc9bde7fb495ee11fe49164391015b60405180910390a15050565b6105856113c7565b335f9081526003602090815260408083206001600160a01b0385168452909152902054806105e25760405162461bcd60e51b815260206004820152600a6024820152694e6f2062616c616e636560b01b60448201526064016103d0565b335f8181526003602090815260408083206001600160a01b03871680855292528083208390555163a9059cbb60e01b8152600481019390935260248301849052909163a9059cbb906044016020604051808303815f875af1158015610649573d5f803e3d5ffd5b505050506040513d601f19601f8201168201806040525081019061066d9190611ea3565b90508061068c5760405162461bcd60e51b81526004016103d090611ebe565b6040518281526001600160a01b0384169033907f16d46b28f1a9377c2df78652a0a8e31568b99311665bcec24cbba72edd2e5c2c9060200160405180910390a350506106d760015f55565b50565b6106e26113c7565b5f60026106ef8380611ee7565b6040516106fd929190611f2a565b90815260405190819003602001902080549091506001600160a01b03166107585760405162461bcd60e51b815260206004820152600f60248201526e135bd9195b081b9bdd08199bdd5b99608a1b60448201526064016103d0565b6003810154600160a01b900460ff166107a45760405162461bcd60e51b815260206004820152600e60248201526d4d6f64656c20696e61637469766560901b60448201526064016103d0565b8060020154826040013510156107f35760405162461bcd60e51b8152602060048201526014602482015273125b9cdd59999a58da595b9d081c185e5b595b9d60621b60448201526064016103d0565b81606001354211156108395760405162461bcd60e51b815260206004820152600f60248201526e14185e5b595b9d08195e1c1a5c9959608a1b60448201526064016103d0565b5f6108448380611ee7565b8460200135338660600135604051602001610863959493929190611f39565b60408051601f1981840301815291815281516020928301205f818152600590935291205490915060ff16156108ce5760405162461bcd60e51b815260206004820152601160248201527014185e5b595b9d081c1c9bd8d95cdcd959607a1b60448201526064016103d0565b5f818152600560205260408120805460ff19166001179055600483018054916108f683611f6a565b91905055508260400135826005015f8282546109129190611f82565b9091555050335f90815260046020908152604080832060038601546001600160a01b0316845290915290819020549084013581106109f457335f90815260046020908152604080832060038701546001600160a01b03168452909152808220805491870135929091610985908490611e90565b90915550610999905083604086013561141c565b60038301546001600160a01b0316337f78c1bea688836bc97c258a7192b64cd9e751ec83b2e61a55f05acc1f268cd59760408701356109d88880611ee7565b6040516109e793929190611f95565b60405180910390a3610a23565b5f610a026080860186611ee7565b90501115610a1957610a1483856114cf565b610a23565b610a238385611699565b33610a2e8580611ee7565b604051610a3c929190611f2a565b60408051918290038220878201358352602080890135908401524283830152905190917f6160bea4eee6abc3a7f0ee2233eee9e67ad696116dd8ebeb246d00d9edabdd16919081900360600190a35050506106d760015f55565b6001600160a01b038083165f908152600460209081526040808320938516835292905220545b92915050565b610aca6113ef565b610ad35f6117fb565b565b8415801590610ae5575060408511155b610b245760405162461bcd60e51b815260206004820152601060248201526f125b9d985b1a59081b5bd9195b08125160821b60448201526064016103d0565b82610b645760405162461bcd60e51b815260206004820152601060248201526f125b9d985b1a5908195b991c1bda5b9d60821b60448201526064016103d0565b5f8211610ba75760405162461bcd60e51b815260206004820152601160248201527005072696365206d757374206265203e203607c1b60448201526064016103d0565b6001600160a01b038116610bed5760405162461bcd60e51b815260206004820152600d60248201526c24b73b30b634b2103a37b5b2b760991b60448201526064016103d0565b5f6001600160a01b031660028787604051610c09929190611f2a565b908152604051908190036020019020546001600160a01b031614610c5e5760405162461bcd60e51b815260206004820152600c60248201526b4d6f64656c2065786973747360a01b60448201526064016103d0565b6040518060e00160405280336001600160a01b0316815260200185858080601f0160208091040260200160405190810160405280939291908181526020018383808284375f920182905250938552505050602082018590526001600160a01b038416604080840191909152600160608401526080830182905260a09092015251600290610cee9089908990611f2a565b90815260405160209181900382019020825181546001600160a01b0319166001600160a01b03909116178155908201516001820190610d2d9082612047565b506040828101516002830155606083015160038301805460808601511515600160a01b026001600160a81b03199091166001600160a01b039093169290921791909117905560a0830151600483015560c090920151600590910155513390610d989088908890611f2a565b604051908190038120848252907fe3a8e12a7927b2404fd94fa80277c480e174132c37b5c65a9eb76bf6be391f4f9060200160405180910390a3505050505050565b8051602081830181018051600282529282019190930120915280546001820180546001600160a01b039092169291610e1190611fca565b80601f0160208091040260200160405190810160405280929190818152602001828054610e3d90611fca565b8015610e885780601f10610e5f57610100808354040283529160200191610e88565b820191905f5260205f20905b815481529060010190602001808311610e6b57829003601f168201915b50505050600283015460038401546004850154600590950154939491936001600160a01b0382169350600160a01b90910460ff16919087565b5f60028787604051610ed4929190611f2a565b90815260405190819003602001902080549091506001600160a01b03163314610f2b5760405162461bcd60e51b81526020600482015260096024820152682737ba1037bbb732b960b91b60448201526064016103d0565b83610f6b5760405162461bcd60e51b815260206004820152601060248201526f125b9d985b1a5908195b991c1bda5b9d60821b60448201526064016103d0565b5f8311610faa5760405162461bcd60e51b815260206004820152600d60248201526c496e76616c696420707269636560981b60448201526064016103d0565b60018101610fb9858783612103565b50600281019290925560039091018054911515600160a01b0260ff60a01b1990921691909117905550505050565b610fef6113c7565b6001600160a01b0382166110355760405162461bcd60e51b815260206004820152600d60248201526c24b73b30b634b2103a37b5b2b760991b60448201526064016103d0565b5f81116110755760405162461bcd60e51b815260206004820152600e60248201526d125b9d985b1a5908185b5bdd5b9d60921b60448201526064016103d0565b335f9081526004602090815260408083206001600160a01b0386168452909152812080548392906110a7908490611f82565b90915550506040516323b872dd60e01b8152336004820152306024820152604481018290525f906001600160a01b038416906323b872dd906064016020604051808303815f875af11580156110fe573d5f803e3d5ffd5b505050506040513d601f19601f820116820180604052508101906111229190611ea3565b9050806111415760405162461bcd60e51b81526004016103d090611ebe565b6040518281526001600160a01b0384169033907f854a1caa46a67abd91fff206c0a8a45f6fdc9f7cb7fcfb8ef5646daaa7f1574c906020016104d8565b6111866113ef565b6001600160a01b0381166111cf5760405162461bcd60e51b815260206004820152601060248201526f496e76616c696420747265617375727960801b60448201526064016103d0565b600780546001600160a01b038381166001600160a01b031983168117909355604080519190921680825260208201939093527f4ab5be82436d353e61ca18726e984e561f5c1cc7c6d38b29d2553c790434705a9101610571565b6112316113ef565b6001600160a01b03811661125a57604051631e4fbdf760e01b81525f60048201526024016103d0565b6106d7816117fb565b6112b16040518060e001604052805f6001600160a01b03168152602001606081526020015f81526020015f6001600160a01b031681526020015f151581526020015f81526020015f81525090565b600283836040516112c3929190611f2a565b90815260408051918290036020908101832060e0840190925281546001600160a01b03168352600182018054918401916112fc90611fca565b80601f016020809104026020016040519081016040528092919081815260200182805461132890611fca565b80156113735780601f1061134a57610100808354040283529160200191611373565b820191905f5260205f20905b81548152906001019060200180831161135657829003601f168201915b50505091835250506002820154602082015260038201546001600160a01b0381166040830152600160a01b900460ff16151560608201526004820154608082015260059091015460a0909101529392505050565b60025f54036113e957604051633ee5aeb560e01b815260040160405180910390fd5b60025f55565b6001546001600160a01b03163314610ad35760405163118cdaa760e01b81523360048201526024016103d0565b5f6127106006548361142e91906121bf565b61143891906121d6565b90505f6114458284611e90565b84546001600160a01b039081165f908152600360208181526040808420928a015490941683525290812080549293508392909190611484908490611f82565b90915550506007546001600160a01b039081165f9081526003602081815260408084209289015490941683525290812080548492906114c4908490611f82565b909155505050505050565b5f6114da8280611ee7565b8360200135846040013585606001356040516020016114fd9594939291906121f5565b6040516020818303038152906040528051906020012090505f61154c827f19457468657265756d205369676e6564204d6573736167653a0a3332000000005f908152601c91909152603c902090565b90505f611599826115606080870187611ee7565b8080601f0160208091040260200160405190810160405280939291908181526020018383808284375f9201919091525061184c92505050565b90506001600160a01b03811633146115e75760405162461bcd60e51b8152602060048201526011602482015270496e76616c6964207369676e617475726560781b60448201526064016103d0565b6003850154604080516323b872dd60e01b81523360048201523060248201529086013560448201525f916001600160a01b0316906323b872dd906064016020604051808303815f875af1158015611640573d5f803e3d5ffd5b505050506040513d601f19601f820116820180604052508101906116649190611ea3565b9050806116835760405162461bcd60e51b81526004016103d090611ebe565b61169186866040013561141c565b505050505050565b60038201546001600160a01b031663d505accf3330604085013560608601356116c860c0880160a08901612214565b60405160e087811b6001600160e01b03191682526001600160a01b0396871660048301529490951660248601526044850192909252606484015260ff16608483015260c085013560a483015284013560c482015260e4015f604051808303815f87803b158015611736575f80fd5b505af1158015611748573d5f803e3d5ffd5b505050506003820154604080516323b872dd60e01b81523360048201523060248201529083013560448201525f916001600160a01b0316906323b872dd906064016020604051808303815f875af11580156117a5573d5f803e3d5ffd5b505050506040513d601f19601f820116820180604052508101906117c99190611ea3565b9050806117e85760405162461bcd60e51b81526004016103d090611ebe565b6117f683836040013561141c565b505050565b600180546001600160a01b038381166001600160a01b0319831681179093556040519116919082907f8be0079c531659141344cd1fd0a4f28419497f9722a3daafe3b4186f6b6457e0905f90a35050565b5f805f8061185a8686611874565b92509250925061186a82826118bd565b5090949350505050565b5f805f83516041036118ab576020840151604085015160608601515f1a61189d88828585611975565b9550955095505050506118b6565b505081515f91506002905b9250925092565b5f8260038111156118d0576118d0612234565b036118d9575050565b60018260038111156118ed576118ed612234565b0361190b5760405163f645eedf60e01b815260040160405180910390fd5b600282600381111561191f5761191f612234565b036119405760405163fce698f760e01b8152600481018290526024016103d0565b600382600381111561195457611954612234565b036104ea576040516335e2f38360e21b8152600481018290526024016103d0565b5f80807f7fffffffffffffffffffffffffffffff5d576e7357a4501ddfe92f46681b20a08411156119ae57505f91506003905082611a33565b604080515f808252602082018084528a905260ff891692820192909252606081018790526080810186905260019060a0016020604051602081039080840390855afa1580156119ff573d5f803e3d5ffd5b5050604051601f1901519150506001600160a01b038116611a2a57505f925060019150829050611a33565b92505f91508190505b9450945094915050565b80356001600160a01b0381168114611a53575f80fd5b919050565b5f8060408385031215611a69575f80fd5b611a7283611a3d565b946020939093013593505050565b5f60208284031215611a90575f80fd5b5035919050565b5f60208284031215611aa7575f80fd5b611ab082611a3d565b9392505050565b5f60208284031215611ac7575f80fd5b813567ffffffffffffffff811115611add575f80fd5b82016101008185031215611ab0575f80fd5b5f8060408385031215611b00575f80fd5b611b0983611a3d565b9150611b1760208401611a3d565b90509250929050565b5f8083601f840112611b30575f80fd5b50813567ffffffffffffffff811115611b47575f80fd5b602083019150836020828501011115611b5e575f80fd5b9250929050565b5f805f805f8060808789031215611b7a575f80fd5b863567ffffffffffffffff80821115611b91575f80fd5b611b9d8a838b01611b20565b90985096506020890135915080821115611bb5575f80fd5b50611bc289828a01611b20565b90955093505060408701359150611bdb60608801611a3d565b90509295509295509295565b634e487b7160e01b5f52604160045260245ffd5b5f60208284031215611c0b575f80fd5b813567ffffffffffffffff80821115611c22575f80fd5b818401915084601f830112611c35575f80fd5b813581811115611c4757611c47611be7565b604051601f8201601f19908116603f01168101908382118183101715611c6f57611c6f611be7565b81604052828152876020848701011115611c87575f80fd5b826020860160208301375f928101602001929092525095945050505050565b5f81518084525f5b81811015611cca57602081850181015186830182015201611cae565b505f602082860101526020601f19601f83011685010191505092915050565b5f60018060a01b03808a16835260e06020840152611d0a60e084018a611ca6565b6040840198909852959095166060820152921515608084015260a083019190915260c0909101525092915050565b80151581146106d7575f80fd5b5f805f805f8060808789031215611d5a575f80fd5b863567ffffffffffffffff80821115611d71575f80fd5b611d7d8a838b01611b20565b90985096506020890135915080821115611d95575f80fd5b50611da289828a01611b20565b909550935050604087013591506060870135611dbd81611d38565b809150509295509295509295565b5f8060208385031215611ddc575f80fd5b823567ffffffffffffffff811115611df2575f80fd5b611dfe85828601611b20565b90969095509350505050565b602081525f60018060a01b03808451166020840152602084015160e06040850152611e39610100850182611ca6565b9050604085015160608501528160608601511660808501526080850151151560a085015260a085015160c085015260c085015160e0850152809250505092915050565b634e487b7160e01b5f52601160045260245ffd5b81810381811115610abc57610abc611e7c565b5f60208284031215611eb3575f80fd5b8151611ab081611d38565b6020808252600f908201526e151c985b9cd9995c8819985a5b1959608a1b604082015260600190565b5f808335601e19843603018112611efc575f80fd5b83018035915067ffffffffffffffff821115611f16575f80fd5b602001915036819003821315611b5e575f80fd5b818382375f9101908152919050565b8486823790930191825260601b6bffffffffffffffffffffffff191660208201526034810191909152605401919050565b5f60018201611f7b57611f7b611e7c565b5060010190565b80820180821115610abc57610abc611e7c565b83815260406020820152816040820152818360608301375f818301606090810191909152601f909201601f1916010192915050565b600181811c90821680611fde57607f821691505b602082108103611ffc57634e487b7160e01b5f52602260045260245ffd5b50919050565b601f8211156117f6575f81815260208120601f850160051c810160208610156120285750805b601f850160051c820191505b8181101561169157828155600101612034565b815167ffffffffffffffff81111561206157612061611be7565b6120758161206f8454611fca565b84612002565b602080601f8311600181146120a8575f84156120915750858301515b5f19600386901b1c1916600185901b178555611691565b5f85815260208120601f198616915b828110156120d6578886015182559484019460019091019084016120b7565b50858210156120f357878501515f19600388901b60f8161c191681555b5050505050600190811b01905550565b67ffffffffffffffff83111561211b5761211b611be7565b61212f836121298354611fca565b83612002565b5f601f841160018114612160575f85156121495750838201355b5f19600387901b1c1916600186901b1783556121b8565b5f83815260209020601f19861690835b828110156121905786850135825560209485019460019092019101612170565b50868210156121ac575f1960f88860031b161c19848701351681555b505060018560011b0183555b5050505050565b8082028115828204841417610abc57610abc611e7c565b5f826121f057634e487b7160e01b5f52601260045260245ffd5b500490565b8486823790930191825260208201526040810191909152606001919050565b5f60208284031215612224575f80fd5b813560ff81168114611ab0575f80fd5b634e487b7160e01b5f52602160045260245ffdfea26469706673582212202b33a0563bfb1af8eb48e7eea6e53286e44afc4ce775432d6db167c95553c95d64736f6c63430008140033","linkReferences":{}},"methodIdentifiers":{"FEE_DENOMINATOR()":"d73792a9","balances(address,address)":"c23f001f","depositBalance(address,uint256)":"f0d66cbf","getBalance(address,address)":"d4fac45d","getModel(string)":"fab57404","getUserBalance(address,address)":"6805d6ad","models(string)":"bbf8a026","owner()":"8da5cb5b","payAndCall((string,bytes32,uint256,uint256,bytes,uint8,bytes32,bytes32))":"65951f8b","platformFee()":"26232a2e","processedPayments(bytes32)":"f3f247eb","registerModel(string,string,uint256,address)":"b6ab0eba","renounceOwnership()":"715018a6","setPlatformFee(uint256)":"12e8e2c3","setTreasury(address)":"f0f44260","transferOwnership(address)":"f2fde38b","treasury()":"61d027b3","updateModel(string,string,uint256,bool)":"c0c266bc","userBalances(address,address)":"adb51980","withdraw(address)":"51cff8d9","withdrawBalance(address,uint256)":"0cf20cc9"},"id":34}